:020000040800F2
:100000000028002031150008C1140008C71400089A
:10001000CD140008D3140008D91400080000000013
:10002000000000000000000000000000DF140008D5
:10003000EB14000800000000F71400080315000886
:100040007915000879150008791500087915000858
:100050007915000879150008791500087915000848
:100060007915000879150008791500087915000838
:100070007915000879150008791500087915000828
:100080007915000879150008791500087915000818
:100090007915000879150008791500087915000808
:1000A00079150008791500087915000879150008F8
:1000B00011150008791500080000000079150008E6
:1000C0007915000800000000000000007915000804
:1000D00000000000791500087915000800000000F4
:1000E000791500087915000879150008000000004E
:1000F0000000000000000000000000000000000000
:0C01000000000000000000005FF808F1A3
:10010C0010B5054C237833B9044B13B10448AFF345
:10011C0000800123237010BD44000020000000006B
:10012C00A02B000808B5034B1BB103490348AFF3E0
:10013C00008008BD0000000048000020A02B000833
:10014C0080B582B000AF78607B68092B7FD801A2A4
:10015C0052F823F0890100089F010008B50100083E
:10016C00CB010008E1010008F70100080D020008AE
:10017C0023020008390200084502000800223F2132
:10018C00384801F0F6FC01224021364801F0F1FC20
:10019C0063E000220621334801F0EBFC01227921B7
:1001AC00304801F0E6FC58E000225B212D4801F0BC
:1001BC00E0FC012224212B4801F0DBFC4DE0002265
:1001CC004F21284801F0D5FC01223021254801F0AF
:1001DC00D0FC42E000226621224801F0CAFC012238
:1001EC001921204801F0C5FC37E000226D211D4883
:1001FC0001F0BFFC012212211A4801F0BAFC2CE0DC
:10020C0000227D21174801F0B4FC0122022115487F
:10021C0001F0AFFC21E000220721124801F0A9FCFB
:10022C00012278210F4801F0A4FC16E000227F2166
:10023C000C4801F09EFC10E000226F21094801F0EF
:10024C0098FC01221021074801F093FC05E00122E3
:10025C007F21044801F08DFC00BF00BF0837BD466C
:10026C0080BD00BF000C014080B582B000AF78604B
:10027C007B68032B22D801A252F823F099020008C4
:10028C00A5020008B1020008BD0200080E4B1B6855
:10029C001846FFF755FF12E00B4B5B681846FFF74B
:1002AC004FFF0CE0084B9B681846FFF749FF06E030
:1002BC00054BDB681846FFF743FF00E000BF00BFAB
:1002CC000837BD4680BD00BF0000002080B400AFE1
:1002DC00264B1B68264A82FB03129210DB17D31A9B
:1002EC00244A1360214B1968214B83FB01239A107C
:1002FC00CB17D21A13469B0013445B00CA1A1D4B32
:10030C005A601C4B00229A601B4B1B680A3B052B46
:10031C0026D801A252F823F03D030008450300083B
:10032C004D030008550300085D0300086503000831
:10033C00104B0222DA6014E00E4B0322DA6010E05C
:10034C000C4B0422DA600CE00A4B0222DA6008E063
:10035C00084B0322DA6004E0064B0422DA6000E06A
:10036C0000BF00BFBD4680BC704700BF74000020BA
:10037C0067666666000000202000002080B500AF94
:10038C0001224FF46061074801F0F3FB00224FF4A7
:10039C008071044801F0EDFB0020FFF765FF00BF02
:1003AC0080BD00BF0008014080B500AF01224FF4B2
:1003BC005061074801F0DDFB00224FF40071044846
:1003CC0001F0D7FB0120FFF74FFF00BF80BD00BF3E
:1003DC000008014080B500AF01224FF4306107489E
:1003EC0001F0C7FB00224FF48061044801F0C1FB0F
:1003FC000220FFF739FF00BF80BD00BF000801409D
:10040C0080B500AF01224FF4E061074801F0B1FB69
:10041C0000224FF40061044801F0ABFB0320FFF70E
:10042C0023FF00BF80BD00BF0008014080B500AFB6
:10043C00154B1B689B001A460021144800F024FE43
:10044C00114B1B681946104B1B689B001A46104831
:10045C0000F01AFE0C4B1B685B0019460A4B1B681C
:10046C009B001A460B4800F00FFE074B1A68134608
:10047C005B0013441946044B1B689B001A46064844
:10048C0000F002FE00BF80BD300000208903000890
:10049C00B5030008E10300080D04000880B400AFA8
:1004AC00694B1B68103B032B60D801A252F823F058
:1004BC00CD040008E90400081905000849050008E6
:1004CC00624B1B68624A82FB03129211DB17D31A30
:1004DC00604A13605C4B11221A6048E05D4B1B684C
:1004EC00012B0DD15C4B1B68594A82FB03129211F4
:1004FC00DB17D31A574A1360534B12221A6036E09B
:10050C00544B1B68013B534A136030E0514B1B6842
:10051C00012B0DD1514B1B684D4A82FB03129211DA
:10052C00DB17D31A4B4A1360474B13221A601EE099
:10053C00484B1B68013B474A136018E0454B1B684E
:10054C00012B0DD1414B1B68414A82FB03129211C6
:10055C00DB17D31A3F4A13603B4B11221A6006E09B
:10056C003C4B1B68013B3B4A136000E000BF3C4B1B
:10057C001B68103B032B61D801A252F823F000BF7B
:10058C009D050008B9050008E905000819060008D2
:10059C00314B1B682E4A82FB03129211DB17D31AC4
:1005AC00304A13602E4B12221A6048E02D4B1B6808
:1005BC00012B0DD1284B1B68254A82FB031292118B
:1005CC00DB17D31A274A1360254B12221A6036E028
:1005DC00244B1B68013B234A136030E0214B1B6802
:1005EC00012B0DD11D4B1B68194A82FB0312921172
:1005FC00DB17D31A1B4A1360194B13221A601EE027
:10060C00184B1B68013B174A136018E0154B1B680D
:10061C00012B0DD10D4B1B680D4A82FB031292115D
:10062C00DB17D31A0F4A13600D4B11221A6006E028
:10063C000C4B1B68013B0B4A136000E000BF00BF72
:10064C00BD4680BC704700BF100000202400002075
:10065C00D34D621060000020280000202C000020E8
:10066C00140000206400002080B400AF1A4B1B68FB
:10067C001A4A82FB03129210DB17D31A184A136022
:10068C00154B1968154B83FB01239A10CB17D21A03
:10069C0013469B0013445B00CA1A114B5A60114B52
:1006AC001B680E4A82FB03129210DB17D31A0C4AFA
:1006BC0093600C4B1968094B83FB01239A10CB17E1
:1006CC00D21A13469B0013445B00CA1A044BDA601F
:1006DC0000BFBD4680BC7047600000206766666640
:1006EC00000000206400002080B500AF4FF47A7247
:1006FC000021024800F0C8FC00BF80BDA90400081E
:10070C0080B500AF01220421074801F032FA002223
:10071C001021054801F02DFA00220821024801F0B1
:10072C0028FA00BF80BD00BF0008014080B500AFB3
:10073C0000220421074801F01CFA0122102105486F
:10074C0001F017FA00220821024801F012FA00BF4A
:10075C0080BD00BF0008014080B500AF002204211D
:10076C00074801F006FA00221021054801F001FAB1
:10077C0001220821024801F0FCF900BF80BD00BF36
:10078C000008014080B500AF01222021074801F08C
:10079C00F0F900228021054801F0EBF900224021FC
:1007AC00024801F0E6F900BF80BD00BF000801401F
:1007BC0080B500AF00222021074801F0DAF90122B0
:1007CC008021054801F0D5F900224021024801F0B2
:1007DC00D0F900BF80BD00BF0008014080B500AF5C
:1007EC0000222021074801F0C4F90022802105488D
:1007FC0001F0BFF901224021024801F0BAF900BF13
:10080C0080BD00BF0008014080B582B000AF1F4B17
:10081C001A681F4B1B681A441E4B1B6813447B60E1
:10082C007B681A4600211C4800F02EFC174B1B68F5
:10083C0019467B681A46194800F026FC134B1A68B7
:10084C00134B1B68134419467B681A46144800F076
:10085C001BFC7B681A460021124800F015FC0C4B5F
:10086C001B6819467B681A460F4800F00DFC084BB4
:10087C001A68084B1B68134419467B681A460B48C8
:10088C0000F002FC00BF0837BD4680BD24000020EC
:10089C00280000202C0000200D0700083907000854
:1008AC0065070008BD070008E90700089107000864
:1008BC0080B500AF0122FC21024801F05AF900BFBB
:1008CC0080BD00BF0008014080B500AF0022FC21B4
:1008DC00024801F04EF900BF80BD00BF0008014086
:1008EC0080B500AF094B1B685B001A460021084815
:1008FC0000F0CAFB054B1B681946044B1B685B00D8
:10090C001A46044800F0C0FB00BF80BD3400002034
:10091C00BD080008D508000880B483B000AF78602B
:10092C00094A7B6852F82330002B06D0064A7B68B4
:10093C00002142F82310012300E0002318460C3755
:10094C00BD4680BC704700BF8800002080B483B0D7
:10095C0000AF7860074B1A68074B1B6892FBF3F2E9
:10096C0006497B6841F8232000BF0C37BD4680BC8C
:10097C00704700BF1C0000201800002094000020CD
:10098C0080B582B000AF78602D4A7B6852F8233076
:10099C00002B02D0012B1BD04DE02A4A7B689B0018
:1009AC0013449B78002B43D1264A7B689B0013444D
:1009BC000022DA70224A7B68012142F82310224A75
:1009CC007B68012142F823107868FFF7BFFF2FE006
:1009DC001C4A7B689B0013449B78012B0BD1194A52
:1009EC007B689B0013440122DA70154A7B68002156
:1009FC0042F823101EE0154A7B6852F823305A1E29
:100A0C0012497B6841F82320104A7B6852F8233046
:100A1C00002B0FD10A4A7B68012142F823100A4AA5
:100A2C007B68012142F823107868FFF78FFF01E003
:100A3C0000BF00E000BF00BF0837BD4680BD00BF4F
:100A4C00680000207C00002088000020940000201A
:100A5C0080B582B000AF00237B6068E0384A7B68C9
:100A6C009B0013445978364A7B6802F82310344AA9
:100A7C007B689B0013449978314A7B689B00134434
:100A8C000A465A707B68022B25D07B68022B30DC1F
:100A9C007B68002B03D07B68012B0ED029E04FF430
:100AAC008051284801F04EF803461946244A7B68C9
:100ABC009B0013440A469A701CE04FF400512148E5
:100ACC0001F040F8034619461D4A7B689B0013440D
:100ADC000A469A700EE04FF480411A4801F032F841
:100AEC0003461946164A7B689B0013440A469A70C3
:100AFC0000E000BF124A7B6812F8232010497B6883
:100B0C009B000B445B789A420ED10D4A7B689B008C
:100B1C0013445A780A497B689B000B449B789A4291
:100B2C0002D17868FFF72CFF7B6801337B607B6810
:100B3C00022B93DD00BF00BF0837BD4680BD00BF50
:100B4C007C0000200008014080B500AF534B1B68AF
:100B5C000F2B69D00F2B00F398800D2B02D00E2B8E
:100B6C0031D092E0FFF7BCFEFFF7B0FB0020FFF79F
:100B7C00D3FE0346002B02D0484B0B221A600220F6
:100B8C00FFF7CAFE0346002B0AD0444B0A221A6018
:100B9C00434B1B684FF47A7202FB03F3414A136018
:100BAC000120FFF7B9FE0346002B70D03C4B1B68AD
:100BBC00632B02DD3A4B00221A60394B1B68013360
:100BCC00374A136063E0FFF78BFEFFF77FFB0020D3
:100BDC00FFF7A2FE0346002B02D0304B0C221A600A
:100BEC000220FFF799FE0346002B0AD02B4B0B2259
:100BFC001A602B4B1B684FF47A7202FB03F32A4AE0
:100C0C0013600120FFF788FE0346002B41D0244BD4
:100C1C001B68632B02DD224B00221A60204B1B68E1
:100C2C0001331F4A136034E0FFF75AFEFFF74EFB07
:100C3C000020FFF771FE0346002B02D0174B092250
:100C4C001A600220FFF768FE0346002B0AD0134BF4
:100C5C000C221A60124B1B684FF47A7202FB03F3DE
:100C6C00124A13600120FFF757FE0346002B12D0E7
:100C7C000B4B1B68632B02DD094B00221A60084BDF
:100C8C001B680133064A136005E000BF04E000BF97
:100C9C0002E000BF00E000BF00BF80BD20000020CC
:100CAC0074000020240000202C00002028000020CC
:100CBC0080B500AF574B1B68083B042B00F2A0809B
:100CCC0001A252F823F000BFE90C0008010D000846
:100CDC00250D00086D0D0008B50D00084D4B0922BF
:100CEC001A6000F0B7F9FFF78FFDFFF79FFBFFF7D6
:100CFC00FBFC8CE00020FFF70FFE0346002B08D016
:100D0C00444B0A221A6000F0A5F9FFF7E9FDFFF742
:100D1C008DFBFFF7A9FC7AE00020FFF7FDFD0346F1
:100D2C00002B02D03B4B0B221A603B4B1B683B4AFF
:100D3C0082FB03129211DB17D31A394A1360FFF7A7
:100D4C00C5FA0120FFF7E8FD0346002B5AD0314BC2
:100D5C000D221A60324B1B680133314A136051E08B
:100D6C000020FFF7D9FD0346002B02D0294B0C22A3
:100D7C001A602C4B1B68294A82FB03129211DB1759
:100D8C00D31A274A1360FFF7A1FA0120FFF7C4FD1D
:100D9C000346002B38D01F4B0E221A60204B1B68C9
:100DAC0001331F4A13602FE00020FFF7B5FD034607
:100DBC00002B0AD0174B09221A6000F04BF9FFF7F1
:100DCC0023FDFFF733FBFFF78FFC174B1B68134A10
:100DDC0082FB03129211DB17D31A114A1360FFF72F
:100DEC0075FA0120FFF798FD0346002B0ED0094B36
:100DFC000F221A600A4B1B680133094A136005E085
:100E0C0000BF04E000BF02E000BF00E000BF00BF75
:100E1C0080BD00BF2000002024000020D34D6210B4
:100E2C00740000202C0000202800002080B500AFAA
:100E3C0000F09EFB00F012F800F04CF800F096F871
:100E4C00054801F0E7FA00F005F9FFF731FFFFF76D
:100E5C007BFE00F075F9F8E7A000002080B590B09B
:100E6C0000AF07F1180328220021184601F08AFE72
:100E7C003B1D00221A605A609A60DA601A610223E4
:100E8C00BB610123BB621023FB6200237B6307F170
:100E9C001803184600F086FE0346002B01D000F024
:100EAC00D3F80F237B600023BB600023FB6000237F
:100EBC003B6100237B613B1D0021184601F0F2F8D9
:100ECC000346002B01D000F0BFF800BF4037BD46F1
:100EDC0080BD000080B586B000AF07F1080300228A
:100EEC001A605A609A60DA603B4600221A605A60B7
:100EFC001D4B4FF080421A601B4B41F63F725A60FB
:100F0C00194B00229A60184B0922DA60164B00220A
:100F1C001A61154B00229A61134801F02BFA034613
:100F2C00002B01D000F090F84FF48053BB6007F118
:100F3C00080319460C4801F0C1FB0346002B01D0F5
:100F4C0000F082F800233B6000237B603B4619468F
:100F5C00054801F089FD0346002B01D000F074F820
:100F6C0000BF1837BD4680BDA000002080B586B0FC
:100F7C0000AF07F1080300221A605A609A60DA6029
:100F8C00284B9B69274A43F004039361254B9B69CB
:100F9C0003F004037B607B68224B9B69214A43F07E
:100FAC00080393611F4B9B6903F008033B603B688C
:100FBC00002240F6FC711C4800F0DBFD00227F2172
:100FCC001A4800F0D6FD40F6FC73BB600123FB60B1
:100FDC0000233B6102237B6107F108031946124889
:100FEC0000F036FC7F23BB600123FB6000233B61D8
:100FFC0002237B6107F1080319460C4800F028FC1A
:10100C004FF4E043BB600023FB6001233B6107F11D
:10101C0008031946044800F01BFC00BF1837BD46F6
:10102C0080BD00BF0010024000080140000C0140D0
:10103C0080B582B000AF786000F0D0F8FFF708FD03
:10104C0000BF0837BD4680BD80B400AF72B600BF8C
:10105C00FEE7000080B582B000AF00237B6005E0A6
:10106C00786800F019F97B6801337B60054B1B68CD
:10107C007A689A42F4D3034B00221A6000BF0837F7
:10108C00BD4680BD7800002080B485B000AFF8600C
:10109C00B9607A60274B1B68272B45D8254B1A68FB
:1010AC00254913469B0013449B000B44FA681A60B5
:1010BC00224B1B6819461F4B1A68BB68B3FBF1F136
:1010CC001D4813469B0013449B00034404331960D2
:1010DC001A4B1B681946174B1A687B68B3FBF1F166
:1010EC00154813469B0013449B00034408331960B6
:1010FC00104B1A68104913469B0013449B000B4479
:10110C000C3300221A700B4B1A680A4B19680A48E8
:10111C0013469B0013449B00034410331960054B8A
:10112C001B680133034A136000BF1437BD4680BCF3
:10113C00704700BF78000020E80000201800002055
:10114C0080B582B000AF00237B6039E021497A681A
:10115C0013469B0013449B000B440C331B78002B51
:10116C002BD01C497A6813469B0013449B000B44FC
:10117C001B68984717497A6813469B0013449B00D9
:10118C000B440C331B78013BD8B212497A681346D6
:10119C009B0013449B000B440C3302461A700D4900
:1011AC007A6813469B0013449B000B4408331B685E
:1011BC00002B02D1786800F06FF87B6801337B60FC
:1011CC00054B1B687A689A42C0D300BF00BF083732
:1011DC00BD4680BDE80000207800002080B483B0BC
:1011EC0000AF00237B6048E029497A6813469B00D6
:1011FC0013449B000B4404331B68002B13D024496D
:10120C007A6813469B0013449B000B4404331B6801
:10121C00591E1F487A6813469B0013449B000344D5
:10122C000433196026E01A497A6813469B0013446C
:10123C009B000B440833196815487A6813469B00C9
:10124C0013449B0003440433196011497A68134614
:10125C009B0013449B000B440C331B780133D8B216
:10126C000B497A6813469B0013449B000B440C33C8
:10127C0002461A707B6801337B60064B1B687A68E8
:10128C009A42B1D300BF00BF0C37BD4680BC70473B
:10129C00E80000207800002080B485B000AF7860B2
:1012AC007B68FB6061E0FB685A1C554913469B0048
:1012BC0013449B000B4419685148FA6813469B0071
:1012CC0013449B0003441960FB685A1C4C49134699
:1012DC009B0013449B000B44043319684848FA687C
:1012EC0013469B0013449B00034404331960FB68B2
:1012FC005A1C434913469B0013449B000B44083370
:10130C0019683F48FA6813469B0013449B0003443A
:10131C0008331960FB685A1C394913469B00134467
:10132C009B000B440C3318783549FA6813469B0024
:10133C0013449B000B440C3302461A70FB685A1C76
:10134C002F4913469B0013449B000B4410331B681E
:10135C00591E2B48FA6813469B0013449B00034408
:10136C0010331960FB680133FB60264B1B68013B93
:10137C00FA689A4297D3234B1B685A1E204913468E
:10138C009B0013449B000B4400221A601D4B1B68EE
:10139C005A1E1B4913469B0013449B000B440433F9
:1013AC0000221A60174B1B685A1E154913469B00E6
:1013BC0013449B000B44083300221A60114B1B682A
:1013CC005A1E0F4913469B0013449B000B440C33CD
:1013DC0000221A700B4B1B685A1E094913469B00BE
:1013EC0013449B000B44103300221A60054B1B68FE
:1013FC00013B044A136000BF1437BD4680BC7047E4
:10140C00E80000207800002080B485B000AF154BB8
:10141C009B69144A43F001039361124B9B6903F0DF
:10142C000103BB60BB680F4BDB690E4A43F0805372
:10143C00D3610C4BDB6903F080537B607B680A4BF8
:10144C005B68FB60FB6823F0E063FB60FB6843F0C8
:10145C008063FB60044AFB68536000BF1437BD46D1
:10146C0080BC7047001002400000014080B584B081
:10147C0000AF78607B681B68B3F1804F13D10C4BC5
:10148C00DB690B4A43F00103D361094BDB6903F0C1
:10149C000103FB60FB68002200211C2000F0A1F975
:1014AC001C2000F0BAF900BF1037BD4680BD00BF4C
:1014BC000010024080B400AFFEE780B400AFFEE73E
:1014CC0080B400AFFEE780B400AFFEE780B400AF9D
:1014DC00FEE780B400AF00BFBD4680BC704780B44F
:1014EC0000AF00BFBD4680BC704780B400AF00BFEA
:1014FC00BD4680BC704780B500AF00F07FF800BFE0
:10150C0080BD000080B500AF024800F0CFFF00BFE7
:10151C0080BD00BFA000002080B400AF00BFBD465E
:10152C0080BC70470C480D490D4A002302E0D4588A
:10153C00C4500433C4188C42F9D30A4A0A4C002311
:10154C0001E013600432A242FBD3FFF7E5FF01F088
:10155C00F5FAFFF76BFC70470000002044000020F8
:10156C00E02B0008440000200C040020FEE70000E3
:10157C0080B500AF084B1B68074A43F0100313609B
:10158C00032000F023F90F2000F008F8FFF73CFFD0
:10159C000023184680BD00BF0020024080B582B0F9
:1015AC0000AF7860124B1A68124B1B7819464FF437
:1015BC007A73B3FBF1F3B2FBF3F3184600F03BF98B
:1015CC000346002B01D001230EE07B680F2B0AD8B9
:1015DC00002279684FF0FF3000F003F9064A7B686F
:1015EC001360002300E0012318460837BD4680BD78
:1015FC0038000020400000203C00002080B400AFE8
:10160C00054B1B781A46054B1B681344034A1360A1
:10161C0000BFBD4680BC704740000020080400207D
:10162C0080B400AF024B1B681846BD4680BC7047A7
:10163C000804002080B485B000AF78607B6803F0AC
:10164C000703FB600C4BDB68BB60BA684FF6FF030B
:10165C001340BB60FB681A02BB68134343F0BF63C3
:10166C0043F40033BB60044ABB68D36000BF14373B
:10167C00BD4680BC704700BF00ED00E080B400AFF9
:10168C00044BDB681B0A03F007031846BD4680BCFD
:10169C00704700BF00ED00E080B483B000AF03469C
:1016AC00FB7197F90730002B0BDBFB7903F01F0262
:1016BC00064997F907305B09012000FA02F241F85C
:1016CC00232000BF0C37BD4680BC704700E100E012
:1016DC0080B483B000AF03463960FB7197F90730D3
:1016EC00002B0ADB3B68DAB20C4997F90730120180
:1016FC00D2B20B4483F800230AE03B68DAB2084903
:10170C00FB7903F00F03043B1201D2B20B441A769F
:10171C0000BF0C37BD4680BC704700BF00E100E045
:10172C0000ED00E080B489B000AFF860B9607A6079
:10173C00FB6803F00703FB61FB69C3F10703042B90
:10174C0028BF0423BB61FB690433062B02D9FB6958
:10175C00033B00E000237B614FF0FF32BB6902FAD0
:10176C0003F3DA43BB681A407B699A404FF0FF31B0
:10177C007B6901FA03F3D9437B680B40134318468A
:10178C002437BD4680BC704780B582B000AF78600E
:10179C007B68013BB3F1807F01D301230FE00A4A40
:1017AC007B68013B53600F214FF0FF30FFF790FF38
:1017BC00054B00229A60044B07221A60002318463E
:1017CC000837BD4680BD00BF10E000E080B582B098
:1017DC0000AF78607868FFF72DFF00BF0837BD4673
:1017EC0080BD80B586B000AF0346B9607A60FB73EC
:1017FC0000237B61FFF742FF78617A68B9687869EA
:10180C00FFF790FF024697F90F3011461846FFF785
:10181C005FFF00BF1837BD4680BD80B582B000AFFA
:10182C000346FB7197F907301846FFF735FF00BFE9
:10183C000837BD4680BD80B582B000AF786078684F
:10184C00FFF7A2FF034618460837BD4680BD0000CF
:10185C0080B48BB000AF7860396000237B620023CA
:10186C003B6248E101227B6A02FA03F3FB613B68AD
:10187C001B68FA691340BB61BA69FB699A4240F074
:10188C0037813B685B68A34A93425ED0A14A93427E
:10189C0075D8A14A934258D09F4A93426FD89F4A19
:1018AC00934252D09D4A934269D89D4A93424CD060
:1018BC009B4A934263D89B4A934246D0994A93429F
:1018CC005DD8122B2AD8122B59D801A252F823F02A
:1018DC005719000831190008431900088519000828
:1018EC008B1900088B1900088B1900088B1900083C
:1018FC008B1900088B1900088B1900088B1900082C
:10190C008B1900088B1900088B1900088B1900081B
:10191C008B190008391900084D190008824A9342A6
:10192C0013D02CE03B68DB683B6229E03B68DB684A
:10193C0004333B6224E03B68DB6808333B621FE006
:10194C003B68DB680C333B621AE03B689B68002BFE
:10195C0002D104233B6213E03B689B68012B05D149
:10196C0008233B627B68FA691A6109E008233B6231
:10197C007B68FA695A6103E000233B6200E000BF18
:10198C00BB69FF2B01D87B6801E07B6804337B616A
:10199C00BB69FF2B02D87B6A9B0002E07B6A083B89
:1019AC009B003B617B691A680F213B6901FA03F3C9
:1019BC00DB431A40396A3B6901FA03F31A437B692A
:1019CC001A603B685B6803F08053002B00F090803A
:1019DC00564B9B69554A43F001039361534B9B69EA
:1019EC0003F00103BB60BB68514A7B6A9B0802335E
:1019FC0052F82330FB607B6A03F003039B000F2239
:101A0C0002FA03F3DB43FA681340FB607B68494A34
:101A1C0093420DD07B68484A934207D07B68474A73
:101A2C00934201D1022304E0032302E0012300E0EE
:101A3C0000237A6A02F0030292009340FA6813437F
:101A4C00FB603B497B6A9B080233FA6841F8232010
:101A5C003B685B6803F48033002B06D0384B1A6864
:101A6C003749BB6913430B6006E0354B1A68BB69F9
:101A7C00DB43334913400B603B685B6803F4003372
:101A8C00002B06D02E4B5A682D49BB6913434B6073
:101A9C0006E02B4B5A68BB69DB43294913404B606A
:101AAC003B685B6803F48013002B06D0244B9A68C8
:101ABC002349BB6913438B6006E0214B9A68BB69D1
:101ACC00DB431F4913408B603B685B6803F40013D6
:101ADC00002B06D01A4BDA681949BB691343CB604B
:101AEC0006E0174BDA68BB69DB4315491340CB6042
:101AFC007B6A01337B623B681A687B6A22FA03F3C8
:101B0C00002B7FF4AFAE00BF00BF2C37BD4680BCAE
:101B1C00704700BF0000321000003110000022108E
:101B2C0000002110000012100000111000100240E3
:101B3C000000014000080140000C01400010014071
:101B4C000004014080B485B000AF78600B467B8008
:101B5C007B689A687B881340002B02D00123FB73AF
:101B6C0001E00023FB73FB7B18461437BD4680BC99
:101B7C00704780B483B000AF78600B467B8013460F
:101B8C007B707B78002B03D07A887B681A6103E02A
:101B9C007B881A047B681A6100BF0C37BD4680BC79
:101BAC007047000080B586B000AF78607B68002B72
:101BBC0001D101236CE27B681B6803F00103002B4D
:101BCC0000F08780924B5B6803F00C03042B0CD065
:101BDC008F4B5B6803F00C03082B12D18C4B5B68AA
:101BEC0003F48033B3F5803F0BD1894B1B6803F4AE
:101BFC000033002B6CD07B685B68002B68D1012311
:101C0C0046E27B685B68B3F5803F06D1804B1B686E
:101C1C007F4A43F4803313602EE07B685B68002BB3
:101C2C000CD17B4B1B687A4A23F480331360784BBE
:101C3C001B68774A23F4802313601DE07B685B6884
:101C4C00B3F5A02F0CD1724B1B68714A43F480235F
:101C5C0013606F4B1B686E4A43F4803313600BE0C8
:101C6C006B4B1B686A4A23F480331360684B1B6808
:101C7C00674A23F4802313607B685B68002B13D0C6
:101C8C00FFF7CEFC386108E0FFF7CAFC02463B695F
:101C9C00D31A642B01D90323FAE15D4B1B6803F4BF
:101CAC000033002BF0D014E0FFF7BAFC386108E0E9
:101CBC00FFF7B6FC02463B69D31A642B01D9032308
:101CCC00E6E1534B1B6803F40033002BF0D100E02A
:101CDC0000BF7B681B6803F00203002B63D04C4BE6
:101CEC005B6803F00C03002B0BD0494B5B6803F0D3
:101CFC000C03082B1CD1464B5B6803F48033002B80
:101D0C0016D1434B1B6803F00203002B05D07B68F4
:101D1C001B69012B01D00123BAE13D4B1B6823F059
:101D2C00F8027B685B69DB00394913430B603AE0CE
:101D3C007B681B69002B20D0364B01221A60FFF701
:101D4C006FFC386108E0FFF76BFC02463B69D31A65
:101D5C00022B01D903239BE12D4B1B6803F00203DB
:101D6C00002BF0D02A4B1B6823F0F8027B685B69D0
:101D7C00DB00274913430B6015E0264B00221A6049
:101D8C00FFF74EFC386108E0FFF74AFC02463B695E
:101D9C00D31A022B01D903237AE11D4B1B6803F0E4
:101DAC000203002BF0D17B681B6803F00803002BA7
:101DBC003AD07B689B69002B19D0174B01221A6013
:101DCC00FFF72EFC386108E0FFF72AFC02463B695E
:101DDC00D31A022B01D903235AE10D4B5B6A03F092
:101DEC000203002BF0D0012000F0A6FA1CE00A4BF5
:101DFC0000221A60FFF714FC38610FE0FFF710FCAB
:101E0C0002463B69D31A022B08D9032340E100BFD9
:101E1C000010024000004242800442429E4B5B6A2A
:101E2C0003F00203002BE9D17B681B6803F0040369
:101E3C00002B00F0A6800023FB75974BDB6903F0A9
:101E4C008053002B0DD1944BDB69934A43F08053A4
:101E5C00D361914BDB6903F08053BB60BB680123FA
:101E6C00FB758E4B1B6803F48073002B18D18B4BC6
:101E7C001B688A4A43F480731360FFF7D1FB386107
:101E8C0008E0FFF7CDFB02463B69D31A642B01D95E
:101E9C000323FDE0814B1B6803F48073002BF0D00F
:101EAC007B68DB68012B06D17B4B1B6A7A4A43F0BB
:101EBC00010313622DE07B68DB68002B0CD1764BA1
:101ECC001B6A754A23F001031362734B1B6A724A37
:101EDC0023F0040313621CE07B68DB68052B0CD138
:101EEC006D4B1B6A6C4A43F0040313626A4B1B6A0A
:101EFC00694A43F0010313620BE0674B1B6A664AA5
:101F0C0023F001031362644B1B6A634A23F004033E
:101F1C0013627B68DB68002B15D0FFF781FB3861FF
:101F2C000AE0FFF77DFB02463B69D31A41F2883287
:101F3C00934201D90323ABE0574B1B6A03F0020316
:101F4C00002BEED014E0FFF76BFB38610AE0FFF7D3
:101F5C0067FB02463B69D31A41F28832934201D99E
:101F6C00032395E04C4B1B6A03F00203002BEED1CC
:101F7C00FB7D012B05D1484BDB69474A23F080538D
:101F8C00D3617B68DB69002B00F08180424B5B687E
:101F9C0003F00C03082B61D07B68DB69022B46D164
:101FAC003F4B00221A60FFF73BFB386108E0FFF75C
:101FBC0037FB02463B69D31A022B01D9032367E096
:101FCC00354B1B6803F00073002BF0D17B681B6A48
:101FDC00B3F5803F08D1304B5B6823F400327B684B
:101FEC009B682D4913434B602B4B5B6823F4741295
:101FFC007B68196A7B685B6A0B43274913434B6008
:10200C00274B01221A60FFF70BFB386108E0FFF742
:10201C0007FB02463B69D31A022B01D9032337E095
:10202C001D4B1B6803F00073002BF0D02FE01C4BF2
:10203C0000221A60FFF7F4FA386108E0FFF7F0FAB3
:10204C0002463B69D31A022B01D9032320E0124B21
:10205C001B6803F00073002BF0D118E07B68DB6980
:10206C00012B01D1012313E00B4B5B68FB60FB6878
:10207C0003F480327B681B6A9A4206D1FB6803F436
:10208C0070127B685B6A9A4201D0012300E0002346
:10209C0018461837BD4680BD001002400070004045
:1020AC006000424280B584B000AF786039607B68D4
:1020BC00002B01D10123D0E06A4B1B6803F007030E
:1020CC003A689A4210D9674B1B6823F0070265499E
:1020DC003B6813430B60634B1B6803F007033A68C0
:1020EC009A4201D00123B8E07B681B6803F002031D
:1020FC00002B20D07B681B6803F00403002B05D059
:10210C00594B5B68584A43F4E06353607B681B6827
:10211C0003F00803002B05D0534B5B68524A43F481
:10212C0060535360504B5B6823F0F0027B689B68F4
:10213C004D4913434B607B681B6803F00103002B74
:10214C0040D07B685B68012B07D1474B1B6803F4BD
:10215C000033002B15D101237FE07B685B68022BD9
:10216C0007D1414B1B6803F00073002B09D10123ED
:10217C0073E03D4B1B6803F00203002B01D10123DC
:10218C006BE0394B5B6823F003027B685B68364974
:10219C0013434B60FFF744FAF8600AE0FFF740FA8C
:1021AC000246FB68D31A41F28832934201D90323C9
:1021BC0053E02D4B5B6803F00C027B685B689B0063
:1021CC009A42EBD1274B1B6803F007033A689A42FB
:1021DC0010D2244B1B6823F0070222493B6813439F
:1021EC000B60204B1B6803F007033A689A4201D03E
:1021FC00012332E07B681B6803F00403002B08D03A
:10220C00194B5B6823F4E0627B68DB681649134367
:10221C004B607B681B6803F00803002B09D0124B42
:10222C005B6823F460527B681B69DB000E49134327
:10223C004B6000F021F802460B4B5B681B0903F066
:10224C000F030A49CB5C22FA03F3094A1360094BCA
:10225C001B681846FFF7A2F9002318461037BD4635
:10226C0080BD00BF0020024000100240C82B0008B7
:10227C00380000203C00002090B48AB000AF2A4BFC
:10228C003C1D0FCB84E80F0040F201233B80002360
:10229C00FB610023BB6100237B6200237B61002375
:1022AC003B62224B5B68FB61FB6903F00C03042B64
:1022BC0002D0082B03D02DE01D4B3B622DE0FB69B7
:1022CC009B0C03F00F0307F12802134413F8243C72
:1022DC007B61FB6903F48033002B13D0134B5B68D9
:1022EC005B0C03F0010307F12802134413F8283C9C
:1022FC00BB617B690E4A02FB03F2BB69B2FBF3F3D1
:10230C007B6204E07B690B4A02FB03F37B627B6A12
:10231C003B6202E0064B3B6200BF3B6A1846283723
:10232C00BD4690BC704700BFB82B0008001002409F
:10233C0000127A0000093D0080B485B000AF7860CF
:10234C000A4B1B680A4AA2FB03235B0A7A6802FB4E
:10235C0003F3FB6000BFFB685A1EFA60002BF9D137
:10236C0000BF00BF1437BD4680BC7047380000204A
:10237C00D34D621080B582B000AF78607B68002BC3
:10238C0001D1012341E07B6893F83D30DBB2002B97
:10239C0006D17B68002283F83C207868FFF766F84A
:1023AC007B68022283F83D207B681A687B680433C3
:1023BC001946104600F06AFA7B68012283F8462021
:1023CC007B68012283F83E207B68012283F83F2042
:1023DC007B68012283F840207B68012283F841202E
:1023EC007B68012283F842207B68012283F843201A
:1023FC007B68012283F844207B68012283F8452006
:10240C007B68012283F83D20002318460837BD461F
:10241C0080BD000080B485B000AF78607B6893F815
:10242C003D30DBB2012B01D0012335E07B68022269
:10243C0083F83D207B681B68DA687B681B6842F078
:10244C000102DA607B681B68164A934209D07B68EC
:10245C001B68B3F1804F04D07B681B68124A93420F
:10246C0011D17B681B689B6803F00703FB60FB685A
:10247C00062B10D07B681B681A687B681B6842F0BF
:10248C0001021A6007E07B681B681A687B681B688E
:10249C0042F001021A60002318461437BD4680BC76
:1024AC00704700BF002C01400004004080B582B092
:1024BC0000AF78607B681B681B6903F00203022B7A
:1024CC0022D17B681B68DB6803F00203022B1BD153
:1024DC007B681B686FF002021A617B6801221A7715
:1024EC007B681B689B6903F00303002B03D078689F
:1024FC0000F0B1F905E0786800F0A4F9786800F014
:10250C00B3F97B6800221A777B681B681B6903F0A0
:10251C000403042B22D17B681B68DB6803F00403E3
:10252C00042B1BD17B681B686FF004021A617B685B
:10253C0002221A777B681B689B6903F44073002B9B
:10254C0003D0786800F087F905E0786800F07AF934
:10255C00786800F089F97B6800221A777B681B6821
:10256C001B6903F00803082B22D17B681B68DB680E
:10257C0003F00803082B1BD17B681B686FF0080263
:10258C001A617B6804221A777B681B68DB6903F08D
:10259C000303002B03D0786800F05DF905E0786840
:1025AC0000F050F9786800F05FF97B6800221A7728
:1025BC007B681B681B6903F01003102B22D17B680E
:1025CC001B68DB6803F01003102B1BD17B681B68A6
:1025DC006FF010021A617B6808221A777B681B68FF
:1025EC00DB6903F44073002B03D0786800F033F9F7
:1025FC0005E0786800F026F9786800F035F97B681A
:10260C0000221A777B681B681B6903F00103012BFE
:10261C000ED17B681B68DB6803F00103012B07D12B
:10262C007B681B686FF001021A617868FEF700FD89
:10263C007B681B681B6903F08003802B0ED17B68C1
:10264C001B68DB6803F08003802B07D17B681B6859
:10265C006FF080021A61786800F067FA7B681B687B
:10266C001B6903F04003402B0ED17B681B68DB68B1
:10267C0003F04003402B07D17B681B686FF04002CE
:10268C001A61786800F0F9F87B681B681B6903F025
:10269C002003202B0ED17B681B68DB6803F0200322
:1026AC00202B07D17B681B686FF020021A617868B9
:1026BC0000F032FA00BF0837BD4680BD80B584B04B
:1026CC0000AF786039607B6893F83C30012B01D106
:1026DC000223B3E07B68012283F83C207B68022252
:1026EC0083F83D207B681B689B68FB60FB6823F0CC
:1026FC007703FB60FB6823F47F43FB607B681B68FC
:10270C00FA689A603B681B68B3F5005F3ED0B3F57E
:10271C00005F00F28780B3F5805F00F08580B3F531
:10272C00805F7FD8702B1AD0702B7BD8602B50D049
:10273C00602B77D8502B3CD0502B73D8402B58D0D3
:10274C00402B6FD8302B64D0302B6BD8202B60D023
:10275C00202B67D8002B5CD0102B5AD062E07B6802
:10276C0018683B6899683B685A683B68DB6800F0FE
:10277C005CF97B681B689B68FB60FB6843F0770324
:10278C00FB607B681B68FA689A604EE07B6818688F
:10279C003B6899683B685A683B68DB6800F045F910
:1027AC007B681B689A687B681B6842F480429A605D
:1027BC003BE07B6818683B6859683B68DB681A46E5
:1027CC0000F0BCF87B681B685021184600F013F928
:1027DC002BE07B6818683B6859683B68DB681A46D5
:1027EC0000F0DAF87B681B686021184600F003F9EA
:1027FC001BE07B6818683B6859683B68DB681A46C5
:10280C0000F09CF87B681B684021184600F0F3F838
:10281C000BE07B681A683B681B681946104600F091
:10282C00EAF802E000BF00E000BF7B68012283F8F9
:10283C003D207B68002283F83C200023184610378B
:10284C00BD4680BD80B483B000AF786000BF0C374C
:10285C00BD4680BC704780B483B000AF786000BFC9
:10286C000C37BD4680BC704780B483B000AF786035
:10287C0000BF0C37BD4680BC704780B483B000AF3E
:10288C00786000BF0C37BD4680BC704780B485B003
:10289C0000AF786039607B681B68FB607B68254AF9
:1028AC00934207D07B68B3F1804F03D07B68224AF8
:1028BC00934208D1FB6823F07003FB603B685B68B4
:1028CC00FA681343FB607B681A4A934207D07B6813
:1028DC00B3F1804F03D07B68174A934208D1FB6851
:1028EC0023F44073FB603B68DB68FA681343FB60BE
:1028FC00FB6823F080023B685B691343FB607B68D9
:10290C00FA681A603B689A687B68DA623B681A68F6
:10291C007B689A627B68074A934203D13B681A69C9
:10292C007B681A637B6801225A6100BF1437BD466D
:10293C0080BC7047002C01400004004080B487B07C
:10294C0000AFF860B9607A60FB681B6A7B61FB685A
:10295C001B6A23F00102FB681A62FB689B693B61EE
:10296C003B6923F0F0033B617B681B013A6913431D
:10297C003B617B6923F00A037B617A69BB68134373
:10298C007B61FB683A699A61FB687A691A6200BFDD
:10299C001C37BD4680BC704780B487B000AFF86070
:1029AC00B9607A60FB681B6A23F01002FB681A623C
:1029BC00FB689B697B61FB681B6A3B617B6923F449
:1029CC0070437B617B681B037A6913437B613B69B2
:1029DC0023F0A0033B61BB681B013A6913433B61C5
:1029EC00FB687A699A61FB683A691A6200BF1C3706
:1029FC00BD4680BC704780B485B000AF786039604C
:102A0C007B689B68FB60FB6823F07003FB603A6893
:102A1C00FB68134343F00703FB607B68FA689A601A
:102A2C0000BF1437BD4680BC704780B487B000AF80
:102A3C00F860B9607A603B60FB689B687B617B697E
:102A4C0023F47F437B613B681A027B681A43BB68A3
:102A5C0013437A6913437B61FB687A699A6000BF00
:102A6C001C37BD4680BC704780B485B000AF786021
:102A7C0039607B6893F83C30012B01D1022341E093
:102A8C007B68012283F83C207B68022283F83D207E
:102A9C007B681B685B68FB607B681B689B68BB6022
:102AAC00FB6823F07003FB603B681B68FA681343F8
:102ABC00FB607B681B68FA685A607B681B68144A69
:102ACC00934209D07B681B68B3F1804F04D07B68BC
:102ADC001B68104A93420CD1BB6823F08003BB6087
:102AEC003B685B68BA681343BB607B681B68BA6859
:102AFC009A607B68012283F83D207B68002283F872
:102B0C003C20002318461437BD4680BC704700BFDC
:102B1C00002C01400004004080B483B000AF78600A
:102B2C0000BF0C37BD4680BC704780B483B000AF8B
:102B3C00786000BF0C37BD4680BC704770B500266E
:102B4C000C4D0D4C641BA410A64209D100F022F8C8
:102B5C0000260A4D0A4C641BA410A64205D170BD78
:102B6C0055F8043B98470136EEE755F8043B984777
:102B7C000136F2E7D82B0008D82B0008D82B000818
:102B8C00DC2B000803460244934200D1704703F843
:102B9C00011BF9E7F8B500BFF8BC08BC9E467047AE
:0C2BAC00F8B500BFF8BC08BC9E4670479E
:102BB80002030405060708090A0B0C0D0E0F101076
:102BC80000000000000000000102030406070809D5
:042BD80031010008BF
:042BDC000D010008DF
:102BE00001000000020000000300000004000000DB
:102BF00010000000100000000A000000E8030000C0
:102C00000800000088130000B80B0000D007000087
:102C1000FA000000F40100000024F400100000009D
:042C200001000000AF
:0400000508001531A9
:00000001FF
